S02B0000433A2F55736572732F4F747363686F2F4465736B746F702F52412F526563686E65726172636869743B
S107000006140100DD
S113002004FBFFDE150000DE3A313100260100C07A
S113003004FF7FEF150140DF1502C0DF150300DF69
S1130040150480DD040500DF3A3131001E0100C0D3
S1130050060800004C0080C5260200B000400000E5
S1130060060400008C0080C5260200B0C0430000D6
S113007006000000170000DE170140DF1702C0DF92
S1130080170300DF170480DD0405C0DE3A0880EFA3
S113040004FEFFDE150040DD150180DD34004405E7
S1130410140048AD2D0000A83400800514A081B557
S1130420170040B5440040AD150040B5170040DD4D
S1130430170180DD0402C0DE3A2800F83400C40449
S11304401414C09C3703009D350300983AF02EBD68
S11304503A2800F8F41FC00614FFFFDE3A8839D8A2
S11304603400C4031402C87B14D430042D00007C6F
S11304703400C4031403C87B140000042D00007C62
S11304803400C4031401C87BC40100042D00007CA3
S113049034000404141400848403C0033502C083AC
S11304A0C4000004FA700180440000043A70018022
S11304B03400C4033400C47B4400000404008004FA
S11304C04400400404404105040080053A8831009A
S11304D04400C0042603C08CC400C0042611C08C90
S11304E006F33F008402C0042609C0BC0404C0040F
S11304F02604C08406000000040400043500007CC7
S1130500061B0000040800043500007C06180000E7
S1130510047D400508088084C40040040400C0052C
S1130520062A0000060000004400C0042616C08409
S11305300480C0042614C0848400C0042615C09D11
S11305400402C004261BC09D0400C0054400C0046E
S11305502601C094060300003500007C7A902080B8
S1130560060300003500007C7AD0218006000000DC
S11305703400C00414A0C19C3700009D16FC7FA564
S11305803500009806D13F00C4FE7FAD5C00809426
S113059006EE3F003A8829B00C3C00A50401C004D3
S11305A03A58E8A48402C0040E08C0A4040480B528
S11305B006D73F003A8829B0CC0300A58402C004C2
S11305C00E02C0A4440080B506D13F003AA03D000D
S11305D00C3C00B50401C0043A58E8A44060000093
S11305E03A8827503A162698CC0300B5406000009C
S11305F03AB0A69A34000405140800A53500C0A436
S113060006DB3F00C40F80020400C002261BC0A208
S1130610840180024400C0022618C0A2C4168002CD
S11306208400C0022615C0A2C4138002C400C00204
S11306302612C0A2841980020401C002260FC0A29F
S1130640441B80024401C002260CC0A2441F800245
S11306508401C0022609C0A2C4018002C401C002F0
S11306602606C0A2C41F80020402C0022603C0A240
S1130670C41B80024402C0022600C0A23A2800F82B
S10706800000000072
S9030454A4
